{
  "contractName": "Election",
  "abi": [
    {
      "inputs": [],
      "stateMutability": "nonpayable",
      "type": "constructor"
    },
    {
      "anonymous": false,
      "inputs": [
        {
          "indexed": true,
          "internalType": "uint256",
          "name": "_candidateId",
          "type": "uint256"
        }
      ],
      "name": "votedEvent",
      "type": "event"
    },
    {
      "inputs": [
        {
          "internalType": "uint256",
          "name": "",
          "type": "uint256"
        }
      ],
      "name": "candidates",
      "outputs": [
        {
          "internalType": "uint256",
          "name": "id",
          "type": "uint256"
        },
        {
          "internalType": "string",
          "name": "name",
          "type": "string"
        },
        {
          "internalType": "uint256",
          "name": "voteCount",
          "type": "uint256"
        }
      ],
      "stateMutability": "view",
      "type": "function"
    },
    {
      "inputs": [],
      "name": "candidatesCount",
      "outputs": [
        {
          "internalType": "uint256",
          "name": "",
          "type": "uint256"
        }
      ],
      "stateMutability": "view",
      "type": "function"
    },
    {
      "inputs": [
        {
          "internalType": "address",
          "name": "",
          "type": "address"
        }
      ],
      "name": "voters",
      "outputs": [
        {
          "internalType": "bool",
          "name": "",
          "type": "bool"
        }
      ],
      "stateMutability": "view",
      "type": "function"
    }
  ],
  "bytecode": "0x608060405234801561001057600080fd5b50600060028190555061005d6040518060400160405280600b81526020017f43616e64696461746520310000000000000000000000000000000000000000008152506100a660201b60201c565b6100a16040518060400160405280600b81526020017f43616e64696461746520320000000000000000000000000000000000000000008152506100a660201b60201c565b6102ac565b600260008154809291906100b990610204565b9190505550604051806060016040528060025481526020018281526020016000815250600160006002548152602001908152602001600020600082015181600001556020820151816001019080519060200190610117929190610128565b506040820151816002015590505050565b8280546101349061027b565b90600052602060002090601f016020900481019282610156576000855561019d565b82601f1061016f57805160ff191683800117855561019d565b8280016001018555821561019d579182015b8281111561019c578251825591602001919060010190610181565b5b5090506101aa91906101ae565b5090565b5b808211156101c75760008160009055506001016101af565b5090565b7f4e487b7100000000000000000000000000000000000000000000000000000000600052601160045260246000fd5b6000819050919050565b600061020f826101fa565b91507fffffffffffffffffffffffffffffffffffffffffffffffffffffffffffffffff8203610241576102406101cb565b5b600182019050919050565b7f4e487b7100000000000000000000000000000000000000000000000000000000600052602260045260246000fd5b6000600282049050600182168061029357607f821691505b6020821081036102a6576102a561024c565b5b50919050565b61045e806102bb6000396000f3fe608060405234801561001057600080fd5b50600436106100415760003560e01c80632d35a8a2146100465780633477ee2e14610064578063a3ec138d14610096575b600080fd5b61004e6100c6565b60405161005b91906101b7565b60405180910390f35b61007e60048036038101906100799190610203565b6100cc565b60405161008d939291906102c9565b60405180910390f35b6100b060048036038101906100ab9190610365565b61017e565b6040516100bd91906103ad565b60405180910390f35b60025481565b60016020528060005260406000206000915090508060000154908060010180546100f5906103f7565b80601f0160208091040260200160405190810160405280929190818152602001828054610121906103f7565b801561016e5780601f106101435761010080835404028352916020019161016e565b820191906000526020600020905b81548152906001019060200180831161015157829003601f168201915b5050505050908060020154905083565b60006020528060005260406000206000915054906101000a900460ff1681565b6000819050919050565b6101b18161019e565b82525050565b60006020820190506101cc60008301846101a8565b92915050565b600080fd5b6101e08161019e565b81146101eb57600080fd5b50565b6000813590506101fd816101d7565b92915050565b600060208284031215610219576102186101d2565b5b6000610227848285016101ee565b91505092915050565b600081519050919050565b600082825260208201905092915050565b60005b8381101561026a57808201518184015260208101905061024f565b83811115610279576000848401525b50505050565b6000601f19601f8301169050919050565b600061029b82610230565b6102a5818561023b565b93506102b581856020860161024c565b6102be8161027f565b840191505092915050565b60006060820190506102de60008301866101a8565b81810360208301526102f08185610290565b90506102ff60408301846101a8565b949350505050565b600073ffffffffffffffffffffffffffffffffffffffff82169050919050565b600061033282610307565b9050919050565b61034281610327565b811461034d57600080fd5b50565b60008135905061035f81610339565b92915050565b60006020828403121561037b5761037a6101d2565b5b600061038984828501610350565b91505092915050565b60008115159050919050565b6103a781610392565b82525050565b60006020820190506103c2600083018461039e565b92915050565b7f4e487b7100000000000000000000000000000000000000000000000000000000600052602260045260246000fd5b6000600282049050600182168061040f57607f821691505b602082108103610422576104216103c8565b5b5091905056fea2646970667358221220e34b2a922f028e60623bb22b902c6c63c51e3e192b0e4a74f5a69f4bacdd568464736f6c634300080e0033",
  "immutableReferences": {},
  "source": "// SPDX-License-Identifier: MIT\npragma solidity > 0.4.2;\n\ncontract Election {\n    // Model candidate\n    struct Candidate {\n        uint id;\n        string name;\n        uint voteCount;\n    }\n\n    // Store account that have voted\n    mapping (address => bool) public voters;\n    // Store Candidates\n    //Fetch Candidate\n    mapping (uint => Candidate) public candidates;\n    //Store candidate count\n    uint public candidatesCount;\n\n    //voted event\n    event votedEvent (\n        uint indexed _candidateId\n    );\n\n    constructor() {\n        candidatesCount = 0;\n        addCandidate(\"Candidate 1\");\n        addCandidate(\"Candidate 2\");\n    }\n\n    function addCandidate(string memory _name) private {\n        candidatesCount ++;\n        candidates[candidatesCount] = Candidate(candidatesCount, _name, 0);\n    }\n}",
  "sourcePath": "/Users/tuyenln/workspace/dapp/contracts/Election.sol",
  "compiler": {
    "name": "solc",
    "version": "0.8.14+commit.80d49f37.Emscripten.clang"
  },
  "schemaVersion": "3.4.7",
  "updatedAt": "2022-06-08T09:41:03.643Z",
  "devdoc": {
    "kind": "dev",
    "methods": {},
    "version": 1
  },
  "userdoc": {
    "kind": "user",
    "methods": {},
    "version": 1
  }
}