{
  "contractName": "HelloWorld",
  "abi": [
    {
      "inputs": [],
      "name": "name",
      "outputs": [
        {
          "internalType": "string",
          "name": "",
          "type": "string"
        }
      ],
      "stateMutability": "view",
      "type": "function"
    },
    {
      "inputs": [
        {
          "internalType": "string",
          "name": "_name",
          "type": "string"
        }
      ],
      "name": "setName",
      "outputs": [],
      "stateMutability": "nonpayable",
      "type": "function"
    },
    {
      "inputs": [],
      "name": "sayHello",
      "outputs": [
        {
          "internalType": "string",
          "name": "",
          "type": "string"
        }
      ],
      "stateMutability": "view",
      "type": "function"
    }
  ],
  "bytecode": "0x608060405234801561001057600080fd5b50610601806100206000396000f3fe608060405234801561001057600080fd5b50600436106100415760003560e01c806306fdde0314610046578063c47f002714610064578063ef5fb05b14610080575b600080fd5b61004e61009e565b60405161005b91906102aa565b60405180910390f35b61007e60048036038101906100799190610415565b61012c565b005b610088610146565b60405161009591906102aa565b60405180910390f35b600080546100ab9061048d565b80601f01602080910402602001604051908101604052809291908181526020018280546100d79061048d565b80156101245780601f106100f957610100808354040283529160200191610124565b820191906000526020600020905b81548152906001019060200180831161010757829003601f168201915b505050505081565b806000908051906020019061014292919061016e565b5050565b6060600060405160200161015a91906105a9565b604051602081830303815290604052905090565b82805461017a9061048d565b90600052602060002090601f01602090048101928261019c57600085556101e3565b82601f106101b557805160ff19168380011785556101e3565b828001600101855582156101e3579182015b828111156101e25782518255916020019190600101906101c7565b5b5090506101f091906101f4565b5090565b5b8082111561020d5760008160009055506001016101f5565b5090565b600081519050919050565b600082825260208201905092915050565b60005b8381101561024b578082015181840152602081019050610230565b8381111561025a576000848401525b50505050565b6000601f19601f8301169050919050565b600061027c82610211565b610286818561021c565b935061029681856020860161022d565b61029f81610260565b840191505092915050565b600060208201905081810360008301526102c48184610271565b905092915050565b6000604051905090565b600080fd5b600080fd5b600080fd5b600080fd5b7f4e487b7100000000000000000000000000000000000000000000000000000000600052604160045260246000fd5b61032282610260565b810181811067ffffffffffffffff82111715610341576103406102ea565b5b80604052505050565b60006103546102cc565b90506103608282610319565b919050565b600067ffffffffffffffff8211156103805761037f6102ea565b5b61038982610260565b9050602081019050919050565b82818337600083830152505050565b60006103b86103b384610365565b61034a565b9050828152602081018484840111156103d4576103d36102e5565b5b6103df848285610396565b509392505050565b600082601f8301126103fc576103fb6102e0565b5b813561040c8482602086016103a5565b91505092915050565b60006020828403121561042b5761042a6102d6565b5b600082013567ffffffffffffffff811115610449576104486102db565b5b610455848285016103e7565b91505092915050565b7f4e487b7100000000000000000000000000000000000000000000000000000000600052602260045260246000fd5b600060028204905060018216806104a557607f821691505b6020821081036104b8576104b761045e565b5b50919050565b600081905092915050565b7f48656c6c6f000000000000000000000000000000000000000000000000000000600082015250565b60006104ff6005836104be565b915061050a826104c9565b600582019050919050565b60008190508160005260206000209050919050565b600081546105378161048d565b61054181866104be565b9450600182166000811461055c576001811461056d576105a0565b60ff198316865281860193506105a0565b61057685610515565b60005b8381101561059857815481890152600182019150602081019050610579565b838801955050505b50505092915050565b60006105b4826104f2565b91506105c0828461052a565b91508190509291505056fea2646970667358221220eb15fbc1c161648fb40d230284ed9b90d14494ce2f23d50904a3bdc4a2ba73ce64736f6c634300080e0033",
  "immutableReferences": {},
  "source": "// SPDX-License-Identifier: MIT\npragma solidity >= 0.4.2;\n\ncontract HelloWorld {\n    string public name;\n\n    function setName(string memory _name) public {\n        name = _name;\n    }\n\n    function sayHello() public view returns(string memory) {\n        return string(abi.encodePacked(\"Hello\", name));\n    }\n}",
  "sourcePath": "/Users/tuyenln/workspace/dapp/contracts/HelloWorld.sol",
  "compiler": {
    "name": "solc",
    "version": "0.8.14+commit.80d49f37.Emscripten.clang"
  },
  "schemaVersion": "3.4.7",
  "updatedAt": "2022-06-08T09:41:03.645Z",
  "devdoc": {
    "kind": "dev",
    "methods": {},
    "version": 1
  },
  "userdoc": {
    "kind": "user",
    "methods": {},
    "version": 1
  }
}